S01A00004763634170706C69636174696F6E546573742E73726563E9
S11300000C9434000C943E000C943E000C943E007E
S11300100C943E000C943E000C943E000C943E0064
S11300200C943E000C943E000C943E000C943E0054
S11300300C943E000C943E000C943E000C943E0044
S11300400C943E000C943E000C943E000C943E0034
S11300500C943E000C943E000C943E000C943E0024
S11300600C943E000C943E0011241FBECFEFD8E048
S1130070DEBFCDBF0E9420010C9462010C940000ED
S113008021E030E0062E02C0220F331F0A94E2F76B
S11300902095FC0180812823CA0102C0880F991F82
S11300A06A95E2F7822B0895AF92BF92CF92DF92C6
S11300B0EF92FF920F931F93CF93DF93CDB7DEB7E9
S11300C028970FB6F894DEBF0FBECDBF29833A83BD
S11300D04B835C836D837E838F839887E980FA806A
S11300E0CB80DC80AD80BE800F81188541E050E07C
S11300F0B501C8010E94400088B941E050E0B60152
S1130100C8010E94400088B940E050E0B701C8012E
S11301100E94400088B92FEF87EA91E62150804081
S11301209040E1F700C0000040E050E0B501C80194
S11301300E94400088B940E050E0B601C8010E9426
S1130140400088B941E050E0B701C8010E94400076
S113015088B928960FB6F894DEBF0FBECDBFDF91E5
S1130160CF911F910F91FF90EF90DF90CF90BF90B0
S1130170AF900895AF92BF92CF92DF92EF92FF9229
S11301800F931F93CF93DF93CDB7DEB728970FB6A6
S1130190F894DEBF0FBECDBF29833A834B835C83C3
S11301A06D837E838F839887E980FA80CB80DC809F
S11301B0AD80BE800F81188540E050E0B501C801D4
S11301C00E94400088B941E050E0B601C8010E9495
S11301D0400088B940E050E0B701C8010E944000E7
S11301E088B92FEF87EA91E6215080409040E1F7EB
S11301F000C0000041E050E0B501C8010E94400089
S113020088B940E050E0B601C8010E94400088B9B6
S113021040E050E0B701C8010E94400088B9289628
S11302200FB6F894DEBF0FBECDBFDF91CF911F9103
S11302300F91FF90EF90DF90CF90BF90AF90089513
S1130240CF93DF93CDB7DEB728970FB6F894DEBF10
S11302500FBECDBF1A82198281E090E09C838B830C
S113026082E090E09E838D8388E290E098878F837C
S11302708FEF87B918B829813A814B815C816D81F0
S11302807E818F8198850E9454002FEF87EA91E642
S1130290215080409040E1F700C0000029813A815C
S11302A04B815C816D817E818F8198850E94BA002B
S11302B02FEF87EA91E6215080409040E1F700C09B
S10B02C00000D9CFF894FFCF30
S9030000FC
