S01A00004763634170706C69636174696F6E546573742E73726563E9
S11300000C9434000C943E000C943E000C943E007E
S11300100C943E000C943E000C943E000C943E0064
S11300200C943E000C943E000C943E000C943E0054
S11300300C943E000C943E000C943E000C943E0044
S11300400C943E000C943E000C943E000C943E0034
S11300500C943E000C943E000C943E000C943E0024
S11300600C943E000C943E0011241FBECFEFD8E048
S1130070DEBFCDBF0E9440000C9458000C940000D9
S11300808FEF87B988B988B92FEF33ED90E321500A
S113009030409040E1F700C0000043982FEF33ED6B
S11300A090E3215030409040E1F700C00000EBCFD6
S10700B0F894FFCFEE
S9030000FC
