S01A00004763634170706C69636174696F6E546573742E73726563E9
S11300000C9434000C943E000C943E000C943E007E
S11300100C943E000C943E000C943E000C943E0064
S11300200C943E000C943E000C943E000C943E0054
S11300300C943E000C943E000C943E000C943E0044
S11300400C943E000C943E000C943E000C943E0034
S11300500C943E000C943E000C943E000C943E0024
S11300600C943E000C943E0011241FBECFEFD8E048
S1130070DEBFCDBF0E9442010C948A010C940000A3
S113008021E030E0062E02C0220F331F0A94E2F76B
S11300902095FC0180812823CA0102C0880F991F82
S11300A06A95E2F7822B0895EF92FF920F931F93C4
S11300B0CF93DF9376956795769567957695679553
S11300C06115710509F457C0EC018C01660F771FA7
S11300D0660F771F660F771F7C01E60EF71E6C8193
S11300E07D8141E050E08E819F810E94400088B96B
S11300F06A817B8141E050E08E819F810E944000B3
S113010088B96881798140E050E08E819F810E94A6
S1130110400088B92896CE15DF0509F72FEF81EE48
S113012094E0215080409040E1F700C00000F801C5
S11301306481758140E050E0868197810E9440008F
S113014088B9F8016281738140E050E0868197812B
S11301500E94400088B9F8016081718141E050E05B
S1130160868197810E94400088B9085F1F4F0E1551
S11301701F05E9F609C0FFEF21EE84E0F1502040AD
S11301808040E1F700C00000DF91CF911F910F91F3
S1130190FF90EF900895EF92FF920F931F93CF93E8
S11301A0DF9376956795769567957695679561154E
S11301B0710509F457C0EC018C01660F771F660FB7
S11301C0771F660F771F7C01E60EF71E6C817D8119
S11301D040E050E08E819F810E94400088B96A818E
S11301E07B8141E050E08E819F810E94400088B96C
S11301F06881798140E050E08E819F810E944000B7
S113020088B92896CE15DF0509F72FEF81EE94E023
S1130210215080409040E1F700C00000F801648163
S1130220758141E050E0868197810E94400088B941
S1130230F8016281738140E050E0868197810E94D9
S1130240400088B9F8016081718140E050E0868106
S113025097810E94400088B9085F1F4F0E151F0543
S1130260E9F609C0FFEF21EE84E0F1502040804020
S1130270E1F700C00000DF91CF911F910F91FF9033
S1130280EF900895CF93DF93CDB7DEB760970FB6A5
S1130290F894DEBF0FBECDBF1A82198281E090E0D0
S11302A09C838B8382E090E09E838D8388E290E040
S11302B098878F8323E030E03A87298724E030E071
S11302C03C872B8725E030E03E872D87988B8F87EE
S11302D08FEF87B918B860E170E0CE0101960E94F3
S11302E054002FEF83ED90E3215080409040E1F7DC
S11302F000C0000060E170E0CE0101960E94CB00D6
S11303002FEF83ED90E3215080409040E1F700C04F
S10B03100000E1CFF894FFCFD7
S9030000FC
